S0130000636F7572736520776F726B2E737265639D
S113000071C00000D7C0000084C0000082C000009E
S113001080C000007EC000007CC000007AC00000E8
S113002078C0000076C0000074C0000072C00000F8
S113003070C000006EC000006CC000006AC0000008
S113004068C0000066C0000064C0000062C0000018
S113005060C000005EC000005CC000005AC0000028
S113006058C0000056C0000054C0000052C0000038
S113007050C000004EC000004CC000004AC0000048
S113008048C0000046C0000044C0000042C0000058
S113009040C000003EC000003CC000003AC0000068
S11300A038C0000036C0000034C0000032C0000078
S11300B030C000002EC000002CC000002AC0000088
S11300C028C0000026C0000024C0000022C0000098
S11300D020C000001EC000001CC000001AC00000A8
S11300E018C0000011241FBECFEFD1E2DEBFCDBF88
S11300F000E00CBF12E0A0E0B2E0E4E3F2E000E0D4
S11301000BBF02C007900D92AA31B107D9F73BD0BB
S11301108FC076CF81B38F7B81BB83EC99E001974D
S1130120F1F700C0000081B3806481BB83EC99E0E7
S11301300197F1F700C0000008950F931F93CF9328
S1130140DF938C0181B38F7E81BBE4DF81E08093F8
S11301500201E0DF81B3806181BB81B38F7D81BB0C
S1130160D9DFC0E0D0E0F801EC0FFD1F80818823C7
S113017029F080930201CEDF2196F5CFDF91CF9154
S11301801F910F9108958DB381608DBB8FEF809384
S113019004011AB88093010180BB789481B38F7EE7
S11301A081BB81B38F7D81BBB5DF8FE0809302017A
S11301B0B1DFFFCF1F920F920FB60F9211240BB62F
S11301C00F922F933F934F935F936F937F938F93EC
S11301D09F93AF93BF93CF93DF93EF93FF93C5E0C8
S11301E0D1E08FEF888380E092E0A7DF2FE78AE1F8
S11301F096E0215080409040E1F700C00000188252
S11302008CE092E09ADFFF91EF91DF91CF91BF9163
S1130210AF919F918F917F916F915F914F913F919A
S11302202F910F900BBE0F900FBE0F901F9018953B
S1070230F894FFCF6C
S11302344361722061742047617465007265676963
S10D0244737465722068657265002A
S9030000FC
