:100000009EC000006EC60000BAC00000B8C000006C
:10001000B6C00000B4C00000B2C00000B0C0000014
:10002000AEC00000ACC00000AAC00000A8C0000024
:10003000A6C00000A4C00000A2C00000A0C0000034
:100040009EC000009CC000009AC0000098C0000044
:1000500096C0000094C0000092C0000090C0000054
:100060008EC000008CC000008AC0000088C0000064
:1000700086C0000084C0000082C0000080C0000074
:100080007EC000007CC000007AC0000078C0000084
:1000900076C0000074C0000072C0000070C0000094
:1000A0006EC000006CC000006AC0000068C00000A4
:1000B00066C0000064C0000062C0000060C00000B4
:1000C0005EC000005CC000005AC0000058C00000C4
:1000D00056C0000054C0000052C0000050C00000D4
:1000E0004EC0000008000000BE922449123EABAA98
:1000F000AA2ABECDCCCC4C3E00000080BEABAAAA42
:10010000AA3E00000000BF000000803F0000000089
:1001100000084178D3BB4387D1133D190E3CC3BDC2
:100120004282AD2B3E68EC8276BED98FE1A93E4C6F
:1001300080EFFFBE01C4FF7F3F00000000001124DC
:100140001FBECFEFD1E2DEBFCDBF00E00CBF13E09A
:10015000A0E0B2E0EAEAF8E100E00BBF02C00790DD
:100160000D92A639B107D9F723E0A6E9B3E001C0A3
:100170001D92A03EB207E1F77ED50C94530C40CF00
:10018000892B99F484B38F7D84BB83EC99E001972C
:10019000F1F700C0000084B3806284BB83EC99E077
:1001A0000197F1F700C00000089588B18D7F88B9EC
:1001B00083EC99E00197F1F700C0000088B18260FC
:1001C00088B983EC99E00197F1F700C00000089529
:1001D0000F931F93CF93DF938C01672B21F584B38B
:1001E000877F84BB80E090E0CBDF81E080930201D9
:1001F00080E090E0C5DF84B3886084BB84B38F7EE9
:1002000084BB80E090E0BCDFC0E0D0E0F801EC0F00
:10021000FD1F8081882349F18093020180E090E0F6
:10022000AFDF2196F3CF88B1877F88B981E090E076
:10023000A7DF81E085B981E090E0A2DF88B1886026
:1002400088B988B18B7F88B981E090E099DFC0E000
:10025000D0E0F801EC0FFD1F8081882331F085B9D3
:1002600081E090E08DDF2196F4CFDF91CF911F9157
:100270000F91089560E070E086E092E0A9DF82E0EF
:1002800081BB2FE78AE196E0215080409040E1F762
:1002900000C0000060E070E083E192E099DF81E05F
:1002A00081BB2FE78AE196E0215080409040E1F742
:1002B00000C0000011BA0895AF92BF92CF92DF92B2
:1002C000EF92FF920F931F93CF93DF93CDB7DEB7DB
:1002D0008C016B01EDB6FEB6BC01990F880B990B32
:1002E00005D6D0D6BDD520E030E040E85FE354D558
:1002F000CAD52DB73EB7261B370B0FB6F8943EBFB5
:100300000FBE2DBF8DB79EB701965C011F930F9353
:1003100080E292E09F938F93BF92AF92E9D7B601AC
:100320008A2D9B2D55DF9FE32DE033E09150204037
:100330003040E1F700C000000F900F900F900F9039
:100340000F900F900FB6F894FEBE0FBEEDBEDF917A
:10035000CF911F910F91FF90EF90DF90CF90BF90C2
:10036000AF900895672BC9F42091DE033091DF032D
:10037000A901440F551F220F331F220F331F220FD5
:10038000331F240F351F820F931F9093DF03809339
:10039000DE0360E070E090CF08952091D6033091A5
:1003A000D703A901440F551F220F331F220F331FFC
:1003B000220F331F240F351F820F931F9093D703F3
:1003C0008093D60361E070E077CF0895CF92DF92FB
:1003D000EF92FF920F931F93CF93DF93CDB7DEB7CA
:1003E000C85ED3400FB6F894DEBF0FBECDBFCDB60A
:1003F000DEB6E0900202F0900302B7010F2C000C71
:10040000880B990B73D53ED62BD520E030E040E821
:100410005FE3C2D438D52DB73EB7261B370B0FB6D6
:10042000F8943EBF0FBE2DBF0DB71EB70F5F1F4F15
:10043000FF92EF9280E292E09F938F931F930F932E
:1004400057D71F930F9383E292E09F938F938BE68E
:1004500092E09F938F9383E08F9388EE8F938E012A
:100460000F5F1F4F1F930F9307D761E070E0C80124
:10047000AFDE8DB79EB740960FB6F8949EBF0FBE05
:100480008DBF0FB6F894DEBE0FBECDBEC851DC4F97
:100490000FB6F894DEBF0FBECDBFDF91CF911F9195
:1004A0000F91FF90EF90DF90CF900895AF92BF92A1
:1004B000CF92DF92EF92FF920F931F93CF93DF9330
:1004C000CDB7DEB7C85ED3400FB6F894DEBF0FBE1F
:1004D000CDBF0DB71EB78BEF8EB963990BC08BE7FD
:1004E00092E90197F1F700C0000061E070E081E05F
:1004F00090E038DF64990BC08BE792E90197F1F740
:1005000000C0000061E070E084E090E02BDF6599BE
:100510000BC08BE792E90197F1F700C0000061E0A2
:1005200070E087E090E01EDF66995FC18BE792E99B
:100530000197F1F700C000008091DA039091DB038E
:10054000009709F0AFC0E0900002F09001028091A6
:10055000D6039091D7038E159F050CF445C0CDB6F8
:10056000DEB6B7010F2C000C880B990BBFD48AD5CF
:1005700077D420E030E040E85FE30ED484D42DB798
:100580003EB7261B370B0FB6F8943EBF0FBE2DBFEC
:100590008DB79EB701965C01FF92EF9280E292E0E8
:1005A0009F938F93BF92AF92A3D6BF92AF9288E3EF
:1005B00092E09F938F938BE692E09F938F9383E0DB
:1005C0008F9388EE8F939E012F5F3F4F79013F936A
:1005D0002F9352D661E070E0C701FADD0FB6F894B0
:1005E000DEBE0FBECDBEFDC0CDB6DEB6209102028E
:1005F00030910302829F7001839FF00C929FF00C58
:100600001124F092D303E092D203B7010F2C000C17
:10061000880B990B6BD436D523D420E030E040E82A
:100620005FE3BAD330D42DB73EB7261B370B0FB6D6
:10063000F8943EBF0FBE2DBF8DB79EB701965C01EB
:10064000FF92EF9280E292E09F938F93BF92AF92DE
:100650004FD681E592E09F938F93BF92AF9284E64D
:1006600092E09F938F9389E692E09F938F9383E02C
:100670008F9388EE8F939E012F5F3F4F79013F93B9
:100680002F93FAD561E070E0C701A2DD81E090E030
:100690009093DB038093DA030FB6F894DEBE0FBEAF
:1006A000CDBE9FC0019709F09CC02091D603309128
:1006B000D7038091D2039091D303281739070CF404
:1006C0008BC04091D4035091D503240F351F309334
:1006D000D5032093D4036091020270910302A5D543
:1006E0008091000290910102861B970B909301026A
:1006F0008093000261E070E080E792E069DD88B1FC
:10070000806288B93FE78AE196E0315080409040AE
:10071000E1F700C0000088B18F7D88B961E070E02A
:1007200083E892E055DD2FE73AE186E02150304042
:100730008040E1F700C0000061E070E081E992E0F4
:1007400047DD88B1806188B99FE72AE136E09150A2
:1007500020403040E1F700C0000088B18F7E88B9AA
:1007600061E070E08EE992E033DD88B1806488B9A1
:100770008FE79AE126E0815090402040E1F700C0E9
:10078000000088B18F7B88B961E070E082EB92E075
:100790001FDD3FE78AE196E0315080409040E1F76D
:1007A00000C0000061E070E083EC92E011DD88B1F0
:1007B000806888B92FE73AE186E0215030408040D8
:1007C000E1F700C0000088B18F7788B91092DB0391
:1007D0001092DA03FBDD05C061E070E087ED92E086
:1007E000F7DC1092D7031092D6038DEF8EB9639980
:1007F0000BC08BE792E90197F1F700C0000061E0C0
:1008000070E082E090E0AEDD64990BC08BE792E986
:100810000197F1F700C0000061E070E085E090E032
:10082000A1DD65990BC08BE792E90197F1F700C054
:10083000000061E070E088E090E094DD66990BC014
:100840008BE792E90197F1F700C0000061E070E0EA
:1008500080E090E087DD8EEF8EB963990BC08BE767
:1008600092E90197F1F700C0000061E070E083E0D9
:1008700090E078DD64990BC08BE792E90197F1F77E
:1008800000C0000061E070E086E090E06BDD6599FB
:100890000BC08BE792E90197F1F700C0000061E01F
:1008A00070E089E090E05EDD669909C01092D703A0
:1008B0001092D6031092DB031092DA0387DD0FB695
:1008C000F8941EBF0FBE0DBFC851DC4F0FB6F89491
:1008D000DEBF0FBECDBFDF91CF911F910F91FF9073
:1008E000EF90DF90CF90BF90AF9008958BEF809303
:1008F00008018091060183FD0BC08BE792E9019707
:10090000F1F700C0000060E070E081E090E02ADDD7
:100910008091060184FD0BC08BE792E90197F1F706
:1009200000C0000060E070E084E090E01BDD80919A
:10093000060185FD0BC08BE792E90197F1F700C036
:10094000000060E070E087E090E00CDD809106013F
:1009500086FDFEC08BE792E90197F1F700C0000029
:100960008091DC039091DD038130910519F5809130
:10097000D8039091D903FC01EE0FFF1FE80FF91F78
:10098000EE0FFF1FEA56FC4F8091DE039091DF03CC
:10099000918380831092DF031092DE0360E070E0A9
:1009A00083EF92E015DC82E090E09093DD0380938A
:1009B000DC03CAC08230910519F58091D80390916B
:1009C000D903FC01EE0FFF1FE80FF91FEE0FFF1F09
:1009D000EA56FC4F8091DE039091DF03938382837C
:1009E0001092DF031092DE0360E070E084E093E099
:1009F000EFDB83E090E09093DD038093DC03A4C001
:100A00008330910589F58091D8039091D903FC0139
:100A1000EE0FFF1FE80FF91FEE0FFF1FEA56FC4F06
:100A20008091DE039091DF03958384831092DF032E
:100A30001092DE0360E070E08DE093E0C9DB8BE7AD
:100A400092E90197F1F700C0000014DC1092DD0379
:100A50001092DC038091D8039091D9030196909372
:100A6000D9038093D80370C08430910559F5209143
:100A7000DE033091DF038091040290910502281774
:100A80003907D1F460E070E08FE193E0A1DB9FE5EE
:100A90002AEE80E0915020408040E1F700C0000045
:100AA00060E070E08DE293E093DB85E090E090936E
:100AB000DD038093DC0348C060E070E085E493E0F0
:100AC00087DB42C0059709F03FC08091DE0390911B
:100AD000DF038130910569F460E070E08091D80314
:100AE0009091D903E9DB60E070E08DE293E070DB88
:100AF0002BC0029749F520E030E080E090E0409183
:100B0000D8035091D90324173507B4F4F901EE0F37
:100B1000FF1FE20FF31FEE0FFF1FEA56FC4F62812B
:100B2000738140919C0350919D03460F571F840F82
:100B3000951F2F5F3F4FE3CF60E070E0BDDB60E0CB
:100B400070E08DE293E044DB1092DF031092DE034D
:100B50008DEF809308018091060183FD0BC08BE728
:100B600092E90197F1F700C0000060E070E082E0D8
:100B700090E0F8DB8091060184FD0BC08BE792E9E1
:100B80000197F1F700C0000060E070E085E090E0C0
:100B9000E9DB8091060185FD0BC08BE792E90197A7
:100BA000F1F700C0000060E070E088E090E0DADB80
:100BB0008091060186FD0BC08BE792E90197F1F762
:100BC00000C0000060E070E080E090E0CBDB8EEFE2
:100BD000809308018091060183FD0BC08BE792E9A9
:100BE0000197F1F700C0000060E070E083E090E062
:100BF000B9DB8091060184FD0BC08BE792E9019778
:100C0000F1F700C0000060E070E086E090E0AADB51
:100C10008091060185FD0BC08BE792E90197F1F702
:100C200000C0000060E070E089E090E09BDB809114
:100C3000060186FD1FC08BE792E90197F1F700C01E
:100C4000000060E070E082E593E0C2DA9FE52AEE02
:100C500080E0915020408040E1F700C0000060E05B
:100C600070E081E693E0B4DA84E090E09093DD03F5
:100C70008093DC0308958DB381608DBB8FEF8093EB
:100C800004011AB88093010183BB80BB87B984B982
:100C900087E0809307018DB9789484B3877F84BB04
:100CA00084B38F7E84BB80E090E06ADACFE0C093AB
:100CB000020180E090E064DA88B1877F88B988B16A
:100CC0008B7F88B981E090E05BDA1092DF031092AD
:100CD000DE03C5B981E090E053DA78DB07DEE6DBBE
:100CE000FDCF1F920F920FB60F9211240BB60F92E9
:100CF0002F933F934F935F936F937F938F939F9324
:100D0000AF93BF93CF93DF93EF93FF93C5E0D1E011
:100D10008FEF888360E070E08BE693E059DA2FE78D
:100D20008AE196E0215080409040E1F700C0000049
:100D3000188260E070E087E793E04ADA81E090E0B3
:100D40009093DD038093DC032FE78AE196E0215046
:100D500080409040E1F700C0000060E070E085E86E
:100D600093E036DA1092DF031092DE03FF91EF91E9
:100D7000DF91CF91BF91AF919F918F917F916F91B3
:100D80005F914F913F912F910F900BBE0F900FBE2F
:100D90000F901F9018955058BB27AA270ED021C13D
:100DA00012D130F017D120F031F49F3F11F41EF42E
:100DB00007C10EF4E095E7FBD4C0E92F23D180F3FF
:100DC000BA17620773078407950718F071F49EF548
:100DD00052C10EF4E0950B2EBA2FA02D0B01B901D4
:100DE00090010C01CA01A0011124FF27591B99F0A1
:100DF000593F50F4503E68F11A16F040A22F232FAD
:100E0000342F4427585FF3CF469537952795A795FC
:100E1000F0405395C9F77EF41F16BA0B620B730BA3
:100E2000840BBAF09150A1F0FF0FBB1F661F771F14
:100E3000881FC2F70EC0BA0F621F731F841F48F4C9
:100E4000879577956795B795F7959E3F08F0B3CF4F
:100E50009395880F08F09927EE0F97958795089539
:100E6000F3D080F09F3740F491110EF405C160E09B
:100E700070E080E89FE3089526F01B16611D711D48
:100E8000811D75C08FC004D06894B111F5C008955C
:100E9000C1D088F09F5790F0B92F9927B751A0F093
:100EA000D1F0660F771F881F991F1AF0BA95C9F7FE
:100EB00012C0B13081F0DFD0B1E00895DCC0672FFF
:100EC000782F8827B85F39F0B93FCCF386957795AE
:100ED0006795B395D9F73EF4909580957095619597
:100EE0007F4F8F4F9F4F0895E89409C097FB3EF4C2
:100EF00090958095709561957F4F8F4F9F4F992367
:100F0000A9F0F92F96E9BB279395F69587957795E4
:100F10006795B795F111F8CFFAF4BB0F11F460FFA4
:100F20001BC06F5F7F4F8F4F9F4F16C0882311F0FC
:100F300096E911C0772321F09EE8872F762F05C010
:100F4000662371F096E8862F70E060E02AF09A95AB
:100F5000660F771F881FDAF7880F9695879597F9A0
:100F6000089597F99F6780E870E060E0089588230E
:100F700071F4772321F09850872B762F07C06623D2
:100F800011F499270DC09051862B70E060E02AF093
:100F90009A95660F771F881FDAF7880F96958795C1
:100FA00097F908959F3F31F0915020F487957795F8
:100FB0006795B795880F911D9695879597F9089530
:100FC0009FEF80EC089500240A9416161706180661
:100FD0000906089500240A9412161306140605063D
:100FE0000895092E0394000C11F4882352F0BB0FCE
:100FF00040F4BF2B11F460FF04C06F5F7F4F8F4F31
:101000009F4F089557FD9058440F551F59F05F3F6B
:1010100071F04795880F97FB991F61F09F3F79F01A
:1010200087950895121613061406551FF2CF46959C
:10103000F1DF08C0161617061806991FF1CF86951E
:101040007105610508940895E5DFA0F0BEE7B917C2
:1010500088F4BB279F3860F41616B11D672F782FD0
:101060008827985FF7CF869577956795B11D9395FB
:101070009639C8F30895E894BB2766277727CB01F4
:1010800097F908950AD029ED3BE54EED5EE345C0A2
:101090000EF088CF95CF689464CFBCDFC8F3992356
:1010A000D1F3C6F3DF93CF931F930F93FF92C92F12
:1010B000DD2788232AF02197660F771F881FDAF72C
:1010C00020E030E040E85FEB9FE3883920F0803E8D
:1010D00030F021968F7760DEE4EEF0E003C05CDE56
:1010E000E1E1F1E07DD08B01BE01EC01FB2E6F57F9
:1010F00071097595771F880B990BF8DE28E132E7A7
:1011000041E35FE316D0AF2D9801AE01FF900F9140
:101110001F91CF91DF9151DE64CF0BD062CF53DFAF
:1011200028F058DF18F0952309F01BCF49CF112480
:10113000A3CF68DFA0F3959FD1F3950F50E0551F23
:10114000629FF001729FBB27F00DB11D639FAA271C
:10115000F00DB11DAA1F649F6627B00DA11D661F6B
:10116000829F2227B00DA11D621F739FB00DA11D8C
:10117000621F839FA00D611D221F749F3327A00D46
:10118000611D231F849F600D211D822F762F6A2FE2
:1011900011249F5750408AF0E1F088234AF0EE0F67
:1011A000FF1FBB1F661F771F881F91505040A9F774
:1011B0009E3F510570F0D5CE5FCF5F3FECF3983E78
:1011C000DCF3869577956795B795F795E7959F5FDB
:1011D000C1F7FE2B880F911D9695879597F9089575
:1011E000DF93CF931F930F93FF92EF92DF927B01D8
:1011F0008C01689405C0DA2EEF019BDFFE01E894B4
:10120000A5912591359145915591AEF3EF01D5DD2D
:10121000FE019701A801DA9479F7DF90EF90FF9033
:101220000F911F91CF91DF91089597FB072E16F430
:10123000009406D077FD08D00BD007FC05D03EF413
:10124000909581959F4F0895709561957F4F089572
:10125000AA1BBB1B51E107C0AA1FBB1FA617B707DC
:1012600010F0A61BB70B881F991F5A95A9F78095F8
:101270009095BC01CD0108950F931F93CF93DF93F9
:10128000CDB7DEB72E970FB6F894DEBF0FBECDBF39
:101290000E891F89888D998D26E02C831A830983F6
:1012A00097FF02C080E090E801979E838D83AE0196
:1012B000445E5F4F6A8D7B8DCE01019647D04D8194
:1012C0005E8157FD0AC02F813885421753070CF401
:1012D0009A01F801E20FF31F10822E960FB6F894D0
:1012E000DEBF0FBECDBFDF91CF911F910F9108954B
:1012F0000F931F93CF93DF93CDB7DEB72E970FB623
:10130000F894DEBF0FBECDBF0E891F8986E08C83A7
:101310001A8309838FEF9FE79E838D83AE01465E1C
:101320005F4F688D798DCE01019610D0EF81F885E1
:10133000E00FF11F10822E960FB6F894DEBF0FBE9D
:10134000CDBFDF91CF911F910F9108952F923F92C2
:101350004F925F926F927F928F929F92AF92BF92C5
:10136000CF92DF92EF92FF920F931F93CF93DF9371
:10137000CDB7DEB72B970FB6F894DEBF0FBECDBF4B
:101380006C017B018A01FC0117821682838181FF37
:10139000BFC1CE0101963C01F6019381F70193FD97
:1013A000859193FF81917F01882309F4ADC1853236
:1013B00039F493FD859193FF81917F01853221F46A
:1013C000B60190E0D6D1E8CF912C212C312CFFE151
:1013D000F315D8F08B3279F038F4803279F083321B
:1013E000A1F4232D20611DC08D3261F0803369F49A
:1013F000232D216016C0832D8260382EE32DE460FA
:101400003E2E2AC0F32DF8601DC037FC2DC020ED04
:10141000280F2A3040F08E32B9F436FC75C1232DE6
:101420002064322E19C036FE06C08AE0989E200D38
:101430001124922E11C0EAE02E9E200D1124222E9E
:10144000F32DF0623F2E08C08C3621F4832D806886
:10145000382E02C0883641F4F70193FD859193FF41
:1014600081917F018111B3CF982F9F7D9554933047
:1014700028F40C5F1F4F9FE399830DC0833631F032
:10148000833771F0833509F055C020C0F8018081A1
:1014900089830E5F1F4F88248394912C530112C0BF
:1014A0002801F2E04F0E511CF801A080B18036FEF9
:1014B00003C0692D70E002C06FEF7FEFC5014ED110
:1014C0004C018201F32DFF773F2E15C0280122E049
:1014D000420E511CF801A080B18036FE03C0692D78
:1014E00070E002C06FEF7FEFC5012DD14C01F32DED
:1014F000F0683F2E820133FC19C0822D90E08816DF
:101500009906A0F4B60180E290E033D12A94F5CF99
:10151000F50137FC859137FE81915F01B60190E0BE
:1015200028D121102A9421E0821A91088114910473
:1015300079F7E1C0843611F0893639F5F80137FEC4
:1015400007C060817181828193810C5F1F4F08C049
:1015500060817181072E000C880B990B0E5F1F4F65
:10156000F32DFF763F2E97FF09C0909580957095DB
:1015700061957F4F8F4F9F4FF0683F2E2AE030E0FC
:10158000A30133D1882E861844C0853731F4232D2A
:101590002F7EB22E2AE030E025C0932D997FB92E00
:1015A0008F36C1F018F4883579F0AEC0803719F065
:1015B000883721F0A9C0E92FE061BE2EB4FE0DC02E
:1015C000FB2DF460BF2E09C034FE0AC0292F26600F
:1015D000B22E06C028E030E005C020E130E002C0B5
:1015E00020E132E0F801B7FE07C06081718182819D
:1015F00093810C5F1F4F06C06081718180E090E095
:101600000E5F1F4FA301F1D0882E8618FB2DFF77A8
:101610003F2E36FE0DC0232D2E7FA22E891458F4A6
:1016200034FE0BC032FC09C0832D8E7EA82E05C06F
:10163000B82CA32C03C0B82C01C0B92CA4FE0FC039
:10164000FE01E80DF11D8081803321F49A2D997EF1
:10165000A92E09C0A2FE06C0B394B39404C08A2D7B
:10166000867809F0B394A3FC10C0A0FE06C0B214A3
:1016700080F4280C922C9B180DC0B21458F4B601BB
:1016800080E290E076D0B394F8CFB21418F42B181F
:1016900002C0982C212CA4FE0FC0B60180E390E07C
:1016A00068D0A2FE16C0A1FC03C088E790E002C08B
:1016B00088E590E0B6010CC08A2D867851F0A1FE35
:1016C00002C08BE201C080E2A7FC8DE2B60190E08F
:1016D00050D0891430F4B60180E390E04AD09A9457
:1016E000F8CF8A94F301E80DF11D8081B60190E0F6
:1016F00040D08110F6CF222009F44ECEB60180E210
:1017000090E037D02A94F7CFF6018681978102C006
:101710008FEF9FEF2B960FB6F894DEBF0FBECDBFB5
:10172000DF91CF911F910F91FF90EF90DF90CF90BD
:10173000BF90AF909F908F907F906F905F904F90F1
:101740003F902F900895FC0105906150704001106A
:10175000D8F7809590958E0F9F1F0895FC016150DA
:10176000704001900110D8F7809590958E0F9F1FC3
:1017700008950F931F93CF93DF93FB01238121FDE6
:1017800003C08FEF9FEF2CC022FF16C04681578108
:10179000248135814217530744F4A081B1819D0112
:1017A0002F5F3F4F318320838C93268137812F5FBA
:1017B0003F4F3783268314C08B01EC01FB0100846B
:1017C000F185E02D1995892BE1F6D80116968D91BA
:1017D0009C911797019617969C938E931697CE011E
:1017E000DF91CF911F910F910895FA01AA27283018
:1017F00051F1203181F1E8946F936E7F6E5F7F4FDE
:101800008F4F9F4FAF4FB1E03ED0B4E03CD0670F59
:10181000781F891F9A1FA11D680F791F8A1F911DAC
:10182000A11D6A0F711D811D911DA11D20D009F4FC
:1018300068943F912AE0269F11243019305D31933E
:10184000DEF6CF010895462F4770405D4193B3E027
:101850000FD0C9F7F6CF462F4F70405D4A3318F0CE
:10186000495D31FD4052419302D0A9F7EACFB4E07F
:10187000A6959795879577956795BA95C9F7009737
:101880006105710508959B01AC010A2E06945795D8
:10189000479537952795BA95C9F7620F731F841F2F
:0A18A000951FA01D0895F894FFCFD6
:1018AA000A00DC05AE084F50454E494E47204741D5
:1018BA00544500434C4F53494E4720474154450035
:1018CA00256400454E54455220494E204E4F204231
:1018DA004F54544C45204000454E54455220424FE7
:1018EA0054544C4553206C657373207468616E20A0
:1018FA000020494E20544845204D4F4E455920530B
:10190A004C4F54004144442000257325732573002D
:10191A004D4F4E455920534C4F54204F50454E4938
:10192A004E470041444420544845204D4F4E4559A6
:10193A0000434C4F53494E4720534C4F54004F508D
:10194A00454E494E4720424F54544C4520534C4F24
:10195A0054005049434B20594F555220424F54543A
:10196A004C4500434C4F53494E4720424F54544C28
:10197A004520534C4F54004641494C454420212CA4
:10198A00494E53554646494349454E54204D4F4EBC
:10199A00455900544F555249535453203E20313033
:1019AA0079727300504C415445204E4F00544F55A4
:1019BA005249535453205245434F52444544004CD4
:1019CA004F47494E205355434345535300312D3E0B
:1019DA00414C4C20434152532C322D3E544F5552C8
:1019EA0049535453004C4F47494E204641494C45B0
:1019FA004400415454454E44414E54204D4F4445B1
:101A0A0000454E5445522050494E004361722061B0
:101A1A007420476174650072656769737465722022
:101A2A006D6F646500544F555249535453203C31ED
:061A3A0030797273000018
:00000001FF
