:100000009EC000006CC30000BAC00000B8C0000071
:10001000B6C00000B4C00000B2C00000B0C0000014
:10002000AEC00000ACC00000AAC00000A8C0000024
:10003000A6C00000A4C00000A2C00000A0C0000034
:100040009EC000009CC000009AC0000098C0000044
:1000500096C0000094C0000092C0000090C0000054
:100060008EC000008CC000008AC0000088C0000064
:1000700086C0000084C0000082C0000080C0000074
:100080007EC000007CC000007AC0000078C0000084
:1000900076C0000074C0000072C0000070C0000094
:1000A0006EC000006CC000006AC0000068C00000A4
:1000B00066C0000064C0000062C0000060C00000B4
:1000C0005EC000005CC000005AC0000058C00000C4
:1000D00056C0000054C0000052C0000050C00000D4
:1000E0004EC0000008000000BE922449123EABAA98
:1000F000AA2ABECDCCCC4C3E00000080BEABAAAA42
:10010000AA3E00000000BF000000803F0000000089
:1001100000084178D3BB4387D1133D190E3CC3BDC2
:100120004282AD2B3E68EC8276BED98FE1A93E4C6F
:1001300080EFFFBE01C4FF7F3F00000000001124DC
:100140001FBECFEFD1E2DEBFCDBF00E00CBF12E09B
:10015000A0E0B2E0E0EEF1E100E00BBF02C00790EA
:100160000D92A23CB107D9F722E0A2ECB2E001C0A7
:100170001D92A83CB207E1F7E6D00C94EE0840CF00
:1001800084B38F7D84BB83EC99E00197F1F700C0C5
:10019000000084B3806284BB83EC99E00197F1F79F
:1001A00000C000000895EF92FF920F931F93CF932A
:1001B000DF9300D01F92CDB7DEB77C018B0180E8C2
:1001C000898380EC8A8380E98B8380ED8C8384B380
:1001D000877F84BBD5DF81E080930201D1DFE1E03E
:1001E000F0E0EC0FFD1FE00FF11F808184BBC8DF42
:1001F00084B3886084BB84B38F7E84BBC1DF00E09E
:1002000010E0F701E00FF11F8081882331F0809327
:100210000201B6DF0F5F1F4FF4CF0F900F900F90CA
:100220000F90DF91CF911F910F91FF90EF90089564
:1002300060E070E082E092E0B6DF82E081BB2FE711
:100240008AE196E0215080409040E1F700C0000034
:1002500060E070E08FE092E0A6DF81E081BB2FE7F5
:100260008AE196E0215080409040E1F700C0000014
:1002700011BA0895CF92DF92EF92FF920F931F93DE
:10028000CF93DF93CDB7DEB77C01CDB6DEB6BC0130
:10029000990F880B990B28D3F3D3E0D220E030E0FC
:1002A00040E85FE377D2EDD22DB73EB7261B370B80
:1002B0000FB6F8943EBF0FBE2DBF0DB71EB70F5F30
:1002C0001F4FFF92EF928CE192E09F938F931F93C9
:1002D0000F93A9D460E070E0802F912F64DF3FE39B
:1002E0008DE093E0315080409040E1F700C0000085
:1002F0000F900F900F900F900F900F900FB6F894F3
:10030000DEBE0FBECDBEDF91CF911F910F91FF904A
:10031000EF90DF90CF9008952091C6023091C702F0
:10032000A901440F551F220F331F220F331F220F25
:10033000331F240F351F820F931F9093C7028093A2
:10034000C60298CF0895CF93DF93CDB7DEB7EC9771
:100350000FB6F894DEBF0FBECDBF8DB381608DBBED
:100360008FEF809304011AB88093010183BB80BB97
:1003700087E080930701789484B3877F84BB84B33C
:100380008F7E84BBFDDE8FE080930201F9DE109248
:10039000C7021092C6028BEF80930801809106017C
:1003A00083FD09C08BE792E90197F1F700C00000D7
:1003B00081E090E0B1DF8091060184FD09C08BE708
:1003C00092E90197F1F700C0000084E090E0A4DF1B
:1003D0008091060185FD09C08BE792E90197F1F74D
:1003E00000C0000087E090E097DF8091060186FD65
:1003F000F1C08BE792E90197F1F700C0000080910E
:10040000C4029091C5028130910539F58091C202F4
:100410009091C302FC01EE0FFF1FE80FF91FEE0FD2
:10042000FF1F41E050E04C0F5D1FE40FF51F80916E
:10043000C6029091C702918380831092C7021092E6
:10044000C60260E070E08FE192E0ADDE82E090E015
:100450009093C5028093C402B9C08230910539F5EA
:100460008091C2029091C302FC01EE0FFF1FE80FC2
:10047000F91FEE0FFF1F81E090E08C0F9D1FE80F2A
:10048000F91F8091C6029091C702938382831092D4
:10049000C7021092C60260E070E080E392E083DE63
:1004A00083E090E09093C5028093C4028FC08330B4
:1004B0009105F1F41092C7021092C60260E070E05C
:1004C00089E392E070DE8BE792E90197F1F700C0D3
:1004D0000000AEDE1092C5021092C4028091C202EA
:1004E0009091C30201969093C3028093C2026EC0A2
:1004F0008430910559F52091C6023091C702809150
:1005000000029091010228173907D1F460E070E0F1
:100510008BE492E048DE9FE52AEE40E091502040D7
:100520004040E1F700C0000060E070E089E592E043
:100530003ADE85E090E09093C5028093C40246C005
:1005400060E070E081E792E02EDE40C0059709F0A0
:100550003DC08091C6029091C7028130910559F447
:100560008091C2029091C30285DE60E070E089E56F
:1005700092E019DE2BC0029749F520E030E080E0E0
:1005800090E04091C2025091C30224173507C4F491
:10059000F901EE0FFF1FE20FF31FEE0FFF1F41E007
:1005A00050E04C0F5D1FE40FF51F628173814F8196
:1005B0005885460F571F840F951F2F5F3F4FE1CF80
:1005C00059DE60E070E089E592E0EDDD1092C7024F
:1005D0001092C6028DEF809308018091060183FD81
:1005E00009C08BE792E90197F1F700C0000082E0B3
:1005F00090E092DE8091060184FD09C08BE792E9CC
:100600000197F1F700C0000085E090E085DE809161
:10061000060185FD09C08BE792E90197F1F700C05B
:10062000000088E090E078DE8091060186FD09C038
:100630008BE792E90197F1F700C0000080E090E0BD
:100640006BDE8EEF809308018091060183FD09C067
:100650008BE792E90197F1F700C0000083E090E09A
:100660005BDE8091060184FD09C08BE792E901976A
:10067000F1F700C0000086E090E04EDE80910601B8
:1006800085FD09C08BE792E90197F1F700C00000F2
:1006900089E090E041DE8091060186FD7CCE8BE70B
:1006A00092E90197F1F700C0000060E070E08EE78A
:1006B00092E079DD9FE52AEE40E0915020404040F5
:1006C000E1F700C0000060E070E08DE892E06BDDD3
:1006D00084E090E09093C5028093C4025CCE1F92A8
:1006E0000F920FB60F9211240BB60F922F933F93D8
:1006F0004F935F936F937F938F939F93AF93BF932A
:10070000CF93DF93EF93FF93C5E0D1E08FEF888322
:1007100060E070E087E992E046DD2FE78AE196E04D
:10072000215080409040E1F700C00000188262E054
:1007300070E083EA92E037DD81E090E09093C502BB
:100740008093C4022FE78AE196E0215080409040D8
:10075000E1F700C0000060E070E081EB92E023DD93
:100760001092C7021092C602FF91EF91DF91CF91D4
:10077000BF91AF919F918F917F916F915F914F91B9
:100780003F912F910F900BBE0F900FBE0F901F90B7
:1007900018955058BB27AA270ED021C112D130F08E
:1007A00017D120F031F49F3F11F41EF407C10EF46D
:1007B000E095E7FBD4C0E92F23D180F3BA17620795
:1007C00073078407950718F071F49EF552C10EF473
:1007D000E0950B2EBA2FA02D0B01B90190010C0151
:1007E000CA01A0011124FF27591B99F0593F50F469
:1007F000503E68F11A16F040A22F232F342F4427C1
:10080000585FF3CF469537952795A795F0405395B8
:10081000C9F77EF41F16BA0B620B730B840BBAF088
:100820009150A1F0FF0FBB1F661F771F881FC2F7F3
:100830000EC0BA0F621F731F841F48F48795779507
:100840006795B795F7959E3F08F0B3CF9395880FBE
:1008500008F09927EE0F979587950895F3D080F0CB
:100860009F3740F491110EF405C160E070E080E81C
:100870009FE3089526F01B16611D711D811D75C033
:100880008FC004D06894B111F5C00895C1D088F02C
:100890009F5790F0B92F9927B751A0F0D1F0660F6C
:1008A000771F881F991F1AF0BA95C9F712C0B13087
:1008B00081F0DFD0B1E00895DCC0672F782F882762
:1008C000B85F39F0B93FCCF3869577956795B395C6
:1008D000D9F73EF490958095709561957F4F8F4F35
:1008E0009F4F0895E89409C097FB3EF4909580953A
:1008F000709561957F4F8F4F9F4F9923A9F0F92FE6
:1009000096E9BB279395F695879577956795B79563
:10091000F111F8CFFAF4BB0F11F460FF1BC06F5F49
:100920007F4F8F4F9F4F16C0882311F096E911C05B
:10093000772321F09EE8872F762F05C0662371F07C
:1009400096E8862F70E060E02AF09A95660F771F90
:10095000881FDAF7880F9695879597F9089597F984
:100960009F6780E870E060E00895882371F4772342
:1009700021F09850872B762F07C0662311F4992712
:100980000DC09051862B70E060E02AF09A95660FBA
:10099000771F881FDAF7880F9695879597F908953E
:1009A0009F3F31F0915020F4879577956795B795E3
:1009B000880F911D9695879597F908959FEF80EC84
:1009C000089500240A9416161706180609060895B5
:1009D00000240A9412161306140605060895092E1B
:1009E0000394000C11F4882352F0BB0F40F4BF2B8A
:1009F00011F460FF04C06F5F7F4F8F4F9F4F0895CA
:100A000057FD9058440F551F59F05F3F71F04795BF
:100A1000880F97FB991F61F09F3F79F087950895A4
:100A2000121613061406551FF2CF4695F1DF08C0C3
:100A3000161617061806991FF1CF869571056105E0
:100A400008940895E5DFA0F0BEE7B91788F4BB2746
:100A50009F3860F41616B11D672F782F8827985F8E
:100A6000F7CF869577956795B11D93959639C8F31D
:100A70000895E894BB2766277727CB0197F9089557
:100A80000AD029ED3BE54EED5EE345C00EF088CF80
:100A900095CF689464CFBCDFC8F39923D1F3C6F334
:100AA000DF93CF931F930F93FF92C92FDD278823E6
:100AB0002AF02197660F771F881FDAF720E030E0D1
:100AC00040E85FEB9FE3883920F0803E30F02196CC
:100AD0008F7760DEE4EEF0E003C05CDEE1E1F1E0A0
:100AE0007DD08B01BE01EC01FB2E6F57710975950E
:100AF000771F880B990BF8DE28E132E741E35FE3CB
:100B000016D0AF2D9801AE01FF900F911F91CF919C
:100B1000DF9151DE64CF0BD062CF53DF28F058DF76
:100B200018F0952309F01BCF49CF1124A3CF68DF1C
:100B3000A0F3959FD1F3950F50E0551F629FF001F0
:100B4000729FBB27F00DB11D639FAA27F00DB11D49
:100B5000AA1F649F6627B00DA11D661F829F2227D2
:100B6000B00DA11D621F739FB00DA11D621F839F59
:100B7000A00D611D221F749F3327A00D611D231F2F
:100B8000849F600D211D822F762F6A2F11249F577D
:100B900050408AF0E1F088234AF0EE0FFF1FBB1FA0
:100BA000661F771F881F91505040A9F79E3F51053F
:100BB00070F0D5CE5FCF5F3FECF3983EDCF38695C7
:100BC00077956795B795F795E7959F5FC1F7FE2BEA
:100BD000880F911D9695879597F90895DF93CF9388
:100BE0001F930F93FF92EF92DF927B018C01689429
:100BF00005C0DA2EEF019BDFFE01E894A591259157
:100C0000359145915591AEF3EF01D5DDFE01970188
:100C1000A801DA9479F7DF90EF90FF900F911F9180
:100C2000CF91DF9108950F931F93CF93DF93CDB7AB
:100C3000DEB72E970FB6F894DEBF0FBECDBF0E897C
:100C40001F8986E08C831A8309838FEF9FE79E8339
:100C50008D83AE01465E5F4F688D798DCE01019622
:100C600010D0EF81F885E00FF11F10822E960FB69D
:100C7000F894DEBF0FBECDBFDF91CF911F910F91D2
:100C800008952F923F924F925F926F927F928F9230
:100C90009F92AF92BF92CF92DF92EF92FF920F930B
:100CA0001F93CF93DF93CDB7DEB72B970FB6F89492
:100CB000DEBF0FBECDBF6C017B018A01FC01178234
:100CC0001682838181FFBFC1CE0101963C01F601EE
:100CD0009381F70193FD859193FF81917F01882393
:100CE00009F4ADC1853239F493FD859193FF81916B
:100CF0007F01853221F4B60190E0D6D1E8CF912C66
:100D0000212C312CFFE1F315D8F08B3279F038F437
:100D1000803279F08332A1F4232D20611DC08D3201
:100D200061F0803369F4232D216016C0832D826029
:100D3000382EE32DE4603E2E2AC0F32DF8601DC04E
:100D400037FC2DC020ED280F2A3040F08E32B9F448
:100D500036FC75C1232D2064322E19C036FE06C024
:100D60008AE0989E200D1124922E11C0EAE02E9E5A
:100D7000200D1124222EF32DF0623F2E08C08C3658
:100D800021F4832D8068382E02C0883641F4F701A3
:100D900093FD859193FF81917F018111B3CF982FAE
:100DA0009F7D9554933028F40C5F1F4F9FE39983E8
:100DB0000DC0833631F0833771F0833509F055C0AB
:100DC00020C0F801808189830E5F1F4F882483949F
:100DD000912C530112C02801F2E04F0E511CF80172
:100DE000A080B18036FE03C0692D70E002C06FEFB5
:100DF0007FEFC5014ED14C018201F32DFF773F2ECD
:100E000015C0280122E0420E511CF801A080B180DB
:100E100036FE03C0692D70E002C06FEF7FEFC501A1
:100E20002DD14C01F32DF0683F2E820133FC19C007
:100E3000822D90E088169906A0F4B60180E290E039
:100E400033D12A94F5CFF50137FC859137FE819196
:100E50005F01B60190E028D121102A9421E0821A86
:100E600091088114910479F7E1C0843611F0893634
:100E700039F5F80137FE07C0608171818281938165
:100E80000C5F1F4F08C060817181072E000C880B1A
:100E9000990B0E5F1F4FF32DFF763F2E97FF09C072
:100EA00090958095709561957F4F8F4F9F4FF0681B
:100EB0003F2E2AE030E0A30133D1882E861844C0AB
:100EC000853731F4232D2F7EB22E2AE030E025C065
:100ED000932D997FB92E8F36C1F018F4883579F0AB
:100EE000AEC0803719F0883721F0A9C0E92FE06142
:100EF000BE2EB4FE0DC0FB2DF460BF2E09C034FE23
:100F00000AC0292F2660B22E06C028E030E005C0B6
:100F100020E130E002C020E132E0F801B7FE07C076
:100F200060817181828193810C5F1F4F06C0608157
:100F3000718180E090E00E5F1F4FA301F1D0882EF9
:100F40008618FB2DFF773F2E36FE0DC0232D2E7FFA
:100F5000A22E891458F434FE0BC032FC09C0832D34
:100F60008E7EA82E05C0B82CA32C03C0B82C01C0BF
:100F7000B92CA4FE0FC0FE01E80DF11D8081803365
:100F800021F49A2D997EA92E09C0A2FE06C0B39421
:100F9000B39404C08A2D867809F0B394A3FC10C0E2
:100FA000A0FE06C0B21480F4280C922C9B180DC031
:100FB000B21458F4B60180E290E076D0B394F8CF42
:100FC000B21418F42B1802C0982C212CA4FE0FC0C8
:100FD000B60180E390E068D0A2FE16C0A1FC03C079
:100FE00088E790E002C088E590E0B6010CC08A2D49
:100FF000867851F0A1FE02C08BE201C080E2A7FC1E
:101000008DE2B60190E050D0891430F4B60180E34F
:1010100090E04AD09A94F8CF8A94F301E80DF11D3C
:101020008081B60190E040D08110F6CF222009F4F3
:101030004ECEB60180E290E037D02A94F7CFF60189
:101040008681978102C08FEF9FEF2B960FB6F894A1
:10105000DEBF0FBECDBFDF91CF911F910F91FF90EB
:10106000EF90DF90CF90BF90AF909F908F907F9048
:101070006F905F904F903F902F900895FC010590E6
:10108000615070400110D8F7809590958E0F9F1F8A
:101090000895FC016150704001900110D8F78095CF
:1010A00090958E0F9F1F08950F931F93CF93DF93FB
:1010B000FB01238121FD03C08FEF9FEF2CC022FF96
:1010C00016C046815781248135814217530744F465
:1010D000A081B1819D012F5F3F4F318320838C938D
:1010E000268137812F5F3F4F3783268314C08B01C2
:1010F000EC01FB010084F185E02D1995892BE1F6C7
:10110000D80116968D919C911797019617969C93EE
:101110008E931697CE01DF91CF911F910F91089575
:10112000FA01AA27283051F1203181F1E8946F9318
:101130006E7F6E5F7F4F8F4F9F4FAF4FB1E03ED0BE
:10114000B4E03CD0670F781F891F9A1FA11D680F5C
:10115000791F8A1F911DA11D6A0F711D811D911D8F
:10116000A11D20D009F468943F912AE0269F112404
:101170003019305D3193DEF6CF010895462F477068
:10118000405D4193B3E00FD0C9F7F6CF462F4F70C3
:10119000405D4A3318F0495D31FD4052419302D021
:1011A000A9F7EACFB4E0A6959795879577956795C7
:1011B000BA95C9F700976105710508959B01AC01C7
:1011C0000A2E06945795479537952795BA95C9F7EE
:1011D000620F731F841F951FA01D0895F894FFCF01
:1011E000AE084F50454E494E4720474154450043B5
:1011F0004C4F53494E472047415445002564005405
:101200004F555249535453203E2031307972730068
:10121000504C415445204E4F00544F555249535461
:1012200053205245434F52444544004C4F47494E8A
:10123000205355434345535300312D3E414C4C20E0
:10124000434152532C322D3E544F5552495354531F
:10125000004C4F47494E204641494C4544004154BB
:1012600054454E44414E54204D4F444500454E5444
:1012700045522050494E00436172206174204761FD
:101280007465007265676973746572206D6F64655B
:1012900000544F555249535453203C3130797273A6
:0212A00000004C
:00000001FF
